:030000000200F506
:0C00F500787FE4F6D8FD75810902006EEA
:10006E001200C78F08E508C3940140F4E508D39445
:10007E000950EDE4F509E509C3950850E3C2B07FD8
:10008E00E87E031200E3D2B07FE87E031200E305A0
:03009E000980E3F3
:10000300EF1200A1003B11004712005314005F18C8
:10001300003E21004A22005624006228004141008C
:100023004D42005944006548004481005082005C01
:10003300840068880000006B7F07227F08227F0905
:10004300227F0D227F04227F05227F06227F0A2240
:100053007F01227F02227F03227F0C227F00227FE7
:0B0063000E227F0F227F0B227F102255
:1000C70075900FAF907590F0AE90EE42076307FF03
:0B00D7007590F0E590B4F0F812000303
:0100E20022FB
:1000E300EF4E600DE4FD0DBDEFFCEF1F70F21E80BF
:0100F300EF1D
:0100F40022E9
:03011100000022C9
:09010100E4FF1201110FBF04F923
:01010A0022D2
:06010B00120101020101D6
:1000A100D083D082F8E4937012740193700DA3A3EE
:1000B10093F8740193F5828883E473740293686002
:0600C100EFA3A3A380DF02
:00000001FF
