:030000000203896F
:0C038900787FE4F6D8FD75812002026345
:10026300C200C20120010E751B9F751A8675190104
:100273007518008009E4F51BF51AF519F518120134
:100283004B120003D2AF20800EE4FFFE12001720B2
:1002930080053080FDD20020810EE4FFFE1200179E
:1002A3002081053081FDB20020822DE4FFFE120083
:1002B30017208224C2AF3082FD20010E751B9F756B
:1002C3001A867519017518008009E4F51BF51AF5EE
:1002D30019F51812014BD2AF2083ABE4FFFE1200D5
:1002E300172083A2C2AF3083FD20010DD201E4F5B4
:1002F3001BF51AF519F518800EC201751B9F751AA7
:0F0303008675190175180012014BD2AF020289DD
:03002B00020312BB
:10031200C0E0C0F0C083C082C0D075D000C000C0B1
:1003220001C002C003C004C005C006C007C2AFC2FC
:10033200CF300034AF1BAE1AAD19AC18EF3001123A
:100342002401F51BE43EF51AE43DF519E43CF518E9
:10035200801324FFF51BEE34FFF51AED34FFF51977
:10036200EC34FFF51812014BB287D2AFD007D0069A
:10037200D005D004D003D002D001D000D0D0D0829A
:07038200D083D0F0D0E0327F
:10000300E4F5C875CBFC75CDFC75CA1875CC18D250
:04001300ADD2CA227E
:10014B00E47BE87A03F9F8AF1BAE1AAD19AC1812C1
:10015B0000B98F138E128D118C10E47FE87E03FD96
:10016B00FCAB13AA12A911A81012002EA804A90502
:10017B00AA06C3E51B9FF517E51A9AF516E519991B
:10018B00F515E51898F514E47B0AFAF9F8AF13AEF8
:10019B0012AD11AC101200B9E47B10FAF9F8120091
:1001AB002EC007E47B0AFAF9F8AF13AE12AD11AC0F
:1001BB00101200B9AF03D0E02FF5B0E47B64FAF96D
:1001CB00F8AF17AE16AD15AC141200B9AC00AD01FB
:1001DB00AE02AF03E47B0AFAF9F81200B9E47B1024
:1001EB00FAF9F812002EC007E47B64FAF9F8AF179E
:1001FB00AE16AD15AC141200B9AC00AD01AE02AF2A
:10020B0003E47B0AFAF9F81200B9AF03D0E02FF53B
:10021B0090E47B64FAF9F8AF17AE16AD15AC141277
:10022B0000B9E47B0AFAF9F81200B9E47B10FAF989
:10023B00F812002EC007E47B64FAF9F8AF17AE167C
:10024B00AD15AC141200B9E47B0AFAF9F81200B937
:07025B00AF03D0E02FF5A076
:010262002279
:10001700EF4E600DE4FD0DBDEFFCEF1F70F21E808B
:01002700EFE9
:0100280022B5
:10002E00E88FF0A4CC8BF0A42CFCE98EF0A42CFC71
:10003E008AF0EDA42CFCEA8EF0A4CDA8F08BF0A4EF
:10004E002DCC3825F0FDE98FF0A42CCD35F0FCEB4E
:10005E008EF0A4FEA9F0EB8FF0A4CFC5F02ECD3913
:0F006E00FEE43CFCEAA42DCE35F0FDE43CFC2280
:10007D0075F008758200EF2FFFEE33FECD33CDCC3A
:10008D0033CCC58233C5829BED9AEC99E5829840BD
:10009D000CF582EE9BFEED9AFDEC99FC0FD5F0D69A
:1000AD00E4CEFBE4CDFAE4CCF9A88222B800C1B9C4
:1000BD000059BA002DEC8BF084CFCECDFCE5F0CB02
:1000CD00F97818EF2FFFEE33FEED33FDEC33FCEB3B
:1000DD0033FB10D703994004EB99FB0FD8E5E4F9F6
:1000ED00FA227818EF2FFFEE33FEED33FDEC33FCE3
:1000FD00C933C910D7059BE99A4007EC9BFCE99AD7
:10010D00F90FD8E0E4C9FAE4CCFB2275F010EF2F1B
:10011D00FFEE33FEED33FDCC33CCC833C810D7071B
:10012D009BEC9AE899400AED9BFDEC9AFCE899F856
:0E013D000FD5F0DAE4CDFBE4CCFAE4C8F922E9
:00000001FF
