:0300000002034AAE
:0C034A00787FE4F6D8FD758124020301E1
:10030100C200D28712002E120003D2AF20800F7FCD
:10031100027E001200172080053080FDD20020816E
:100321000F7F027E001200172081053081FDB2008F
:100331002082D97F027E001200172082CFC2AF3007
:0903410082FD12002ED2AF80C330
:03002B0002029F2F
:10029F00C0E0C0F0C083C082C0D075D000C000C025
:1002AF0001C002C003C004C005C006C007C2AFC270
:1002BF00CF30001FAF24AE23AD22AC21EF24FFF5CA
:1002CF0024EE34FFF523ED34FFF522EC34FFF52156
:1002DF0012003AB287D2AFD007D006D005D004D0E3
:1002EF0003D002D001D000D0D0D082D083D0F0D0B4
:0202FF00E032EB
:10000300E4F5C875CBD875CDD875CAF075CCF0D2E8
:04001300ADD2CA227E
:0C002E007524407523197522017521000E
:10003A00E47B707A17F9F8AF24AE23AD22AC211213
:10004A00020D8F178E168D158C14E47F707E17FDA6
:10005A00FCAB17AA16A915A814120182C3E5249F9E
:10006A00FFE5239EFEE5229DFDE5219CFCE47B64E1
:10007A00FAF9F812020D8F1B8E1A8D198C18E47F6B
:10008A00707E17FDFCAB17AA16A915A814120182D7
:10009A00C3E5249FFFE5239EFEE5229DFDE5219C05
:1000AA00FCC004C005C006C007E47F64FEFDFCABCB
:1000BA001BAA1AA919A818120182A804A905AA0636
:1000CA00AB07D007D006D005D004C3EF9BF51FEECF
:1000DA009AF51EED99F51DEC98F51CE47B0AFAF9E0
:1000EA00F8AF17AE16AD15AC1412020DE47B10FA78
:1000FA00F9F8120182C007E47B0AFAF9F8AF17AEE1
:10010A0016AD15AC1412020DAF03D0E02FF5B0E412
:10011A007B0AFAF9F8AF1BAE1AAD19AC1812020D28
:10012A00E47B10FAF9F8120182C007E47B0AFAF9B3
:10013A00F8AF1BAE1AAD19AC1812020DAF03D0E01E
:10014A002FF5A0E47B0AFAF9F8AF1FAE1EAD1DAC7D
:10015A001C12020DE47B10FAF9F8120182C007E4BE
:10016A007B0AFAF9F8AF1FAE1EAD1DAC1C12020DC8
:07017A00AF03D0E02FF59068
:01018100225B
:10001700EF4E600DE4FD0DBDEFFCEF1F70F21E808B
:01002700EFE9
:0100280022B5
:10018200E88FF0A4CC8BF0A42CFCE98EF0A42CFC1C
:100192008AF0EDA42CFCEA8EF0A4CDA8F08BF0A49A
:1001A2002DCC3825F0FDE98FF0A42CCD35F0FCEBF9
:1001B2008EF0A4FEA9F0EB8FF0A4CFC5F02ECD39BE
:0F01C200FEE43CFCEAA42DCE35F0FDE43CFC222B
:1001D10075F008758200EF2FFFEE33FECD33CDCCE5
:1001E10033CCC58233C5829BED9AEC99E582984068
:1001F1000CF582EE9BFEED9AFDEC99FC0FD5F0D645
:10020100E4CEFBE4CDFAE4CCF9A88222B800C1B96E
:100211000059BA002DEC8BF084CFCECDFCE5F0CBAC
:10022100F97818EF2FFFEE33FEED33FDEC33FCEBE5
:1002310033FB10D703994004EB99FB0FD8E5E4F9A0
:10024100FA227818EF2FFFEE33FEED33FDEC33FC8D
:10025100C933C910D7059BE99A4007EC9BFCE99A81
:10026100F90FD8E0E4C9FAE4CCFB2275F010EF2FC6
:10027100FFEE33FEED33FDCC33CCC833C810D707C6
:100281009BEC9AE899400AED9BFDEC9AFCE899F801
:0E0291000FD5F0DAE4CDFBE4CCFAE4C8F92294
:00000001FF
