:030000000200CA31
:0C00CA00787FE4F6D8FD75810B0200A7DA
:1000A700120003E4F50BF50AF509F508D2ACD2AF57
:0200B70080FEC9
:10000300758920758780758BFD758DFDC29FD29E86
:07001300C29DD29CD28E2297
:03002300020026B2
:10002600C0E0C0F0C083C082C0D075D000C000C0A0
:1000360001C002C003C004C005C006C007C2AF307D
:100046009840C298E47FFFFEFDFCAB0BAA0AA90903
:10005600A808D31200B9502CAF0B74002FF582E418
:100066003440F583E599F0AF0BAE0AAD09AC08EF65
:100076002401F50BE43EF50AE43DF509E43CF508F8
:100086008002C299D2AFD007D006D005D004D003E3
:10009600D002D001D000D0D0D082D083D0F0D0E032
:0100A6003227
:1000B900EB9FF5F0EA9E42F0E99D42F0E89C45F09D
:0100C9002214
:00000001FF
