:03000000020205F4
:0C020500787FE4F6D8FD75813402024CCD
:0803FE00767938383F406F4F5B
:1003A30014113F065B4F666D7D077F6F777C395E67
:0603B3007971733EFF00AA
:07040600120003E4FEFF22D7
:1003BA00120381EF641060F8E4F5A074112FF8E6D7
:0403CA00F58080EC4E
:10000300E4F508750909F50AF50B750C03F50D758B
:100013000E02F50FF5101203CED2AF1203818F2516
:0800230012017612034980F37B
:1003CE00E4F5C875CB3C75CD3C75CAB075CCB0D2D2
:0403DE00ADD2CA22B0
:03002B000202FCD2
:1002FC00C0E0C0D0C2AFC2CF0510E5106414703698
:10030C00F510050FE50F640A702CF50F050EE50EC0
:10031C0064067022F50E050CE50CB40A19750C0078
:10032C00050BE50BB4060F750B000509E509B40ABE
:0D033C00057509000508D2AFD0D0D0E03221
:10034900753108E4F532E532C39531502A8532A07A
:10035900E53275F00384AFF0BF0205758040800C6B
:1003690074082532F8E62411F8E6F5807F017E004D
:070379001203E2053280CF00
:01038000225A
:020176008F26D2
:10017800C2AFE526640C6003D2AF2278277C007DED
:10018800007B007A0079087E007F081200FE7E005E
:100198007F087D007B007A00790812014A12034922
:1001A800E4F52F752610E526B410071203818F2673
:1001B80080F4E526B40A18752F0878087C007D00BD
:1001C8007B007A0079277E007F081200FE8008E510
:1001D80026B40B03752F08E52F64026005E52FB4DC
:1001E8000502052FE52675F00A847408252FF8A660
:0C01F800F0052FE52FC3940840A9D2AFFA
:0102040022D7
:10029100EF12012402C91102D51202E11402ED1874
:1002A10002CC2102D82202E42402F02802CF41022A
:1002B100DB4202E74402F34802D28102DE8202EA13
:1002C1008402F688000002F97F07227F08227F0955
:1002D100227F0D227F04227F05227F06227F0A22B0
:1002E1007F01227F02227F03227F0C227F00227F57
:0B02F1000E227F0F227F0B227F1022C5
:1003810075900F8590307590F0AF90EF42306330EB
:10039100FF7590F0120349E590B4F0F5AF30120209
:0103A10091CA
:0103A2002238
:1003E200EF4E600DE4FD0DBDEFFCEF1F70F21E80BD
:0103F200EF1B
:0103F30022E7
:03041300000022C4
:0903F400E4FF1204130FBF04F929
:0103FD0022DD
:06040D001203F40203F4E7
:10021100020406E493A3F8E493A34003F68001F2F9
:1002210008DFF48029E493A3F85407240CC8C333EE
:10023100C4540F4420C8834004F456800146F6DFBD
:10024100E4800B01020408102040809003A3E47EA7
:10025100019360BCA3FF543F30E509541FFEE493B2
:10026100A360010ECF54C025E060A840B8E493A379
:10027100FAE493A3F8E493A3C8C582C8CAC583CAA4
:10028100F0A3C8C582C8CAC583CADFE9DEE780BE5C
:0103B9000043
:10002E00E709F608DFFA8046E709F208DFFA803EB4
:10003E0088828C83E709F0A3DFFA8032E309F608A1
:10004E00DFFA8078E309F208DFFA807088828C8309
:10005E00E309F0A3DFFA806489828A83E0A3F608BD
:10006E00DFFA805889828A83E0A3F208DFFA804C97
:10007E0080D280FA80C680D4806980F2803380106E
:10008E0080A680EA809A80A880DA80E280CA8033D7
:10009E0089828A83ECFAE493A3C8C582C8CCC5834F
:1000AE00CCF0A3C8C582C8CCC583CCDFE9DEE7801F
:1000BE000D89828A83E493A3F608DFF9ECFAA9F09E
:1000CE00EDFB2289828A83ECFAE0A3C8C582C8CCF4
:1000DE00C583CCF0A3C8C582C8CCC583CCDFEADE0D
:1000EE00E880DB89828A83E493A3F208DFF980CC6F
:1000FE0088F0EF60010E4E60C388F0ED2402B40468
:10010E000050B9F582EB2402B4040050AF2323450E
:06011E00822390007E73B5
:10012400D083D082F8E4937012740193700DA3A36A
:1001340093F8740193F5828883E47374029368607E
:06014400EFA3A3A380DF7E
:10014A00EF4E6012EF60010EEDBB010B89828A83CC
:10015A00F0A3DFFCDEFA2289F05007F709DFFCA9D9
:0C016A00F022BBFEFCF309DFFCA9F02230
:00000001FF
