:03000000020003F8
:0C000300787FE4F6D8FD75811C02004AED
:0801A100767938383F406F4FBA
:10016E0014083F065B4F666D7D077F6F777C395EA7
:06017E007971733EFF00E1
:1000FA00120152EF6410600AE4F5A074082FF8E6C2
:10010A00F580E4F51CE51CC3940850E4851CA0E5C1
:10011A001C9001A193F5807F057E00120185051CC4
:02012A0080E370
:10008F00EF12012C00C71100D31200DF1400EB1880
:10009F0000CA2100D62200E22400EE2800CD410044
:1000AF00D94200E54400F14800D08100DC8200E82D
:1000BF008400F488000000F77F07227F08227F0961
:1000CF00227F0D227F04227F05227F06227F0A22B4
:1000DF007F01227F02227F03227F0C227F00227F5B
:0B00EF000E227F0F227F0B227F1022C9
:1001520075900FAF907590F0AE90EE42076307FF77
:0B0162007590F0E590B4F0F812008FEB
:01016D00226F
:10018500EF4E600DE4FD0DBDEFFCEF1F70F21E801C
:01019500EF7A
:010196002246
:0301AF000000222B
:09019700E4FF1201AF0FBF04F9EF
:0101A000223C
:0601A9001201970201970C
:10000F000200FAE493A3F8E493A34003F68001F20D
:10001F0008DFF48029E493A3F85407240CC8C333F2
:10002F00C4540F4420C8834004F456800146F6DFC1
:10003F00E4800B010204081020408090016EE47EE2
:10004F00019360BCA3FF543F30E509541FFEE493B6
:10005F00A360010ECF54C025E060A840B8E493A37D
:10006F00FAE493A3F8E493A3C8C582C8CAC583CAA8
:10007F00F0A3C8C582C8CAC583CADFE9DEE780BE60
:01018400007A
:10012C00D083D082F8E4937012740193700DA3A362
:10013C0093F8740193F5828883E473740293686076
:06014C00EFA3A3A380DF76
:00000001FF
