:0207360004D1EC
:030000000205B046
:0C05B000787FE4F6D8FD7581260205F77F
:03000B000202AF3F
:1002AA00C2AF80FE321202AE85D00B75D008AAE02A
:1002BA00C28CE58A24F7F58AE58C34D8F58CD28C81
:1002CA00EC2427F8E6BC000274FFC39581B414003D
:1002DA0040CE7901782416E608700BC2AFE630E109
:1002EA00034418F6D2AF08D9EDEA8BD022E50CFF09
:1002FA00232425F80F0808BF01047F007825E6307B
:10030A00E4F200E50CC39F5020050C7426250CF876
:10031A00E6FDA68108E6AE0CBE000274FFCDF8E841
:10032A006D60E008E6C0E080F6E50CD39F4027E563
:10033A000C2427F8E6AE0CBE000274FFFD18E6CDC9
:10034A00F8E5816D6006D0E0F61880F5E50C242604
:10035A00C8F6150C80D3E50C232425F87F04C2AF18
:10036A00E630E00310E20C7F0030E10730E3047F5F
:10037A000854F4547CC6D2AF54804207227826A689
:10038A008174006006FF0876FFDFFB7F01E47824B2
:0D039A00F608F608DFFA7825763090073671
:1003A700740193C0E0E493C0E0438901758AF07556
:0A03B7008CD8D28CD2AFD2A922005C
:1006E700011801011000011701010F00020D00019F
:0E06F7000512000000000005190000000000C0
:10066E00E5A054F044011206C3E5A054F044021272
:10067E0006C3E5A054F044041206C3E5A054F044AA
:10068E00081206C3751111E5A054F04401F5A0221D
:1004D1007F647E001206C912072C12066E75111177
:1004E10053A0F0AF177E0012063C12071D7F647EF9
:1004F100001206C91203C1E510B401081203C112AA
:10050100016D80F312016DEF600B3094081203C18D
:1005110012016D80F5E5137014E5147010E5157086
:100521000CE51B7008E51C7004E51D607CE5186096
:100531003212071DE5106401606F12000EEF600AB0
:10054100E517B40405120722805FE5A054F0FFE52A
:1005510011540F4FF5A0AF117801EF08800123D896
:10056100FDF511E5187032120722E51064016039BA
:1005710012000EEF600AE517B4010512071D80296C
:10058100E5A054F0FFE511540F4FF5A0AF1178012C
:10059100EF08800103D8FDF5111203C112016D7F2F
:0F05A100FC7E001206C902051653A0F00204F5F5
:1003C10020B41E7F01120003E517D39401400AE512
:1003D10010B40105E4F518F510E517B40103751023
:1003E1000120B2307F02120003E517D39402400AC4
:1003F100E510B40105E4F518F510E517C3940250B2
:100401000BE510B40106751801E4F510E517B40207
:100411000375100120B0307F03120003E517D39458
:1004210003400AE510B40105E4F518F510E517C31A
:100431009403500BE510B40106751801E4F510E5BD
:1004410017B4030375100120B3307F02120710E5C2
:1004510017D39402400AE510B40105E4F518F5102C
:10046100E517C39402500BE510B40106751801E4B9
:10047100F510E517B4020375100120B1307F0312A6
:100481000710E517D39403400AE510B40105E4F51C
:1004910018F510E517C39403500BE510B401067568
:1004A1001801E4F510E517B4030375100120971F37
:1004B1007F04120710E517C39404500BE510B40133
:1004C10006751801E4F510E517B40403751001224F
:10016D00E4F520F52120901704C395175006E4F50A
:10017D0010751301E517B401037510017F012220DD
:10018D0091257402D395174006751401E4F510748A
:10019D0002C395175006751B01E4F510E517B4025F
:1001AD00037510017F01222092257403D39517400A
:1001BD0006751501E4F5107403C395175006751CEB
:1001CD0001E4F510E517B403037510017F0122203A
:1001DD0093187404D395174006751D01E4F510E5C9
:1001ED0017B404037510017F0122209406E4F51065
:1001FD007F012220950B30940512072780F87F018F
:10020D002220960612069E7F0122E5186401704297
:10021D00E5172401F51FE433F51ED3E51F9404E51E
:10022D001E648094805023AF1F74122FF8E6640172
:10023D00600874192FF8E6B40106752000752101C8
:10024D00051FE51F7002051E80D0E52145207002B7
:10025D00F518E5187044E51724FFF51FE434FFF594
:10026D001EC3E51F9401E51E648094804023AF1FDB
:10027D0074122FF8E66401600874192FF8E6B401C2
:10028D0006752000752101E51F151F7002151E80D2
:0C029D00D0E521452070037518017F009A
:0102A9002232
:10000E00050FE50F6408600302016AE518640160DC
:10001E00030200C8051712071DE51764027039F5B3
:10002E000F7F02FE12063CE514B4010912071DE40F
:10003E00F51402013EE51B6401701DE5157019E50E
:10004E001C7015E51D7011120722E4F51B751001C9
:10005E0053A0F0F5187F0122E517640370317F037A
:10006E00FE12063CE4F50FE515B4010912071DE476
:10007E00F51502013EE51CB40115E51D70111207C0
:10008E0022E4F518F51C75100153A0F07F0122E54E
:10009E0017640460030201677F04FE12063C120718
:1000AE0022E4F50FE51D64016003020167F51DF5FD
:1000BE001853A0F07510010201671517120722E5FB
:1000CE0017B4011E7F017E0012063CE4F50FE51306
:1000DE00B4010F12071DE4F51375180153A0F07546
:1000EE001001E5176402702E7F02FE12063CE4F545
:1000FE000FE51BB40108120722E4F51B8032E5144C
:10010E00B40113E513700F12071D751801E4F514F1
:10011E0075100153A0F0E5176403703D7F03FE12C6
:10012E00063CE4F50FE51CB4010F120722E4F51CA2
:10013E0053A0F07510017F0122E513701CE51B70B2
:10014E0018E5147014E515B4010F12071D7518018A
:0F015E00E4F51575100153A0F07F01227F0022F8
:0700030074122FF8760122B0
:0707100074192FF876012295
:04072C0075801122A1
:10063C00EE702BEF24FE6011146015146019240366
:10064C00701C5380F0438001225380F043800222BF
:10065C005380F0438003225380F043800422758042
:02066C00062264
:05071D00D285C2862216
:05072200C285D2862211
:05072700C285C286221C
:10069E00E4F522F52330941A0523E5237002052292
:1006AE00208404D2848002C2847F907E011206C907
:0506BE0080E30207309B
:03073000D284224E
:03073300000022A1
:09070600E4FF1207330FBF04F9F0
:01070F0022C7
:06071700120706020706AE
:0606C300F5A07FC87E00D7
:0406C900AD07AC06C7
:1006CD00D3ED9400EC94004010E4FE1207170EBE1B
:0906DD000AF9ED1D70EA1C80E72A
:0106E60022F1
:1005BC00020387E493A3F8E493A34003F68001F2CB
:1005CC0008DFF48029E493A3F85407240CC8C33340
:1005DC00C4540F4420C8834004F456800146F6DF0F
:1005EC00E4800B01020408102040809006E7E47EB2
:1005FC00019360BCA3FF543F30E509541FFEE49304
:10060C00A360010ECF54C025E060A840B8E493A3CA
:10061C00FAE493A3F8E493A3C8C582C8CAC583CAF5
:10062C00F0A3C8C582C8CAC583CADFE9DEE780BEAD
:0107050000F3
:00000001FF
