:030000000200B744
:0C00B700787FE4F6D8FD75810C02000390
:10007D00767938383F4040403F065B4F666D7D07CF
:10008D00777C395E79717371760638383F065B4F30
:08009D003840384007400740DD
:10000300750805C296E4F50AE50AC3950850F6E4B7
:10001300F50BC37407950BFFE49400FEE50A75F036
:1000230008A4247DF582E43400F583E5822FF5826C
:10003300E5833EF583E493F509E4F50CC374079572
:100043000CFFE509A807088002C313D8FC13929795
:100053001200C3D2961200CDC2961200C3050CE55E
:100063000CC3940840D6050BE50BC3940840A37F4B
:0A007300887E131200A5050A808E96
:1000A500EF4E600DE4FD0DBDEFFCEF1F70F21E80FD
:0100B500EF5B
:0100B6002227
:0300D30000002208
:0900C300E4FF1200D30FBF04F9A1
:0100CC002211
:0600CD001200C30200C393
:00000001FF
