:0300000002000EED
:0C000E00787FE4F6D8FD75810B0200E459
:1000E4007580FF75A0FFE4F590758966758BFA75C8
:1000F4008DFA758AFD758CFDD2A9D2ABD2AFD28CA4
:08010400D28EF509F50880FE1A
:03000B0002001ED2
:10001E00C0E0C0F0C083C082C0D075D000C000C0A8
:0D002E0001C002C003C004C005C006C00729
:10003B00C2AF0508E508C454F0FFE509540F4FF5AE
:10004B0090750A007580F012010C7580FF12010C7F
:0B005B00050AE50AC3940340EBD2AF96
:10006600D007D006D005D004D003D002D001D000EE
:0B007600D0D0D082D083D0F0D0E03298
:03001B000200815F
:10008100C0E0C0F0C083C082C0D075D000C000C045
:0D00910001C002C003C004C005C006C007C6
:10009E00C2AF0509E508C454F0FFE509540F4FF54A
:1000AE0090750B0075A0F012010C75A0FF12010CDB
:0B00BE00050BE50BC3940640EBD2AF2E
:1000C900D007D006D005D004D003D002D001D0008B
:0B00D900D0D0D082D083D0F0D0E03235
:04010C007F327E00C0
:10011000EF4E600DE4FD0DBDEFFCEF1F70F21E8091
:01012000EFEF
:0101210022BB
:00000001FF
