:02023E00020DAF
:02024000024E6C
:02024200025C5C
:02024400026A4C
:0202460002783C
:0202480002862C
:02024A0002941C
:02024C0002A20C
:030000000202B049
:0C02B000787FE4F6D8FD7581240200EB95
:10020D007F011201257F021201257F031201257F37
:10021D00041201257F051201257F061201257F0796
:10022D00120125B2A7E4FBFA7DFF7F021201AE8019
:01023D00F2CE
:0E024E00B2A0E4FBFA7D087F021201AE80F23E
:0E025C00B2A1E4FBFA7D0A7F021201AE80F22D
:0E026A00B2A2E4FBFA7D0F7F021201AE80F219
:0E027800B2A3E4FBFA7D197F021201AE80F200
:0E028600B2A4E4FBFA7D327F021201AE80F2D8
:0E029400B2A5E4FBFA7D647F021201AE80F297
:0E02A200B2A6E4FBFA7DC87F021201AE80F224
:03000B00020013DD
:10000E00C2AF80FE3212001285D00B75D008AAE066
:10001E00C28CE58A24F7F58AE58C34D8F58CD28C1F
:10002E00EC241EF8E6BC070274FFC39581B41400DD
:10003E0040CE7908780D16E608700BC2AFE630E1B7
:10004E00034418F6D2AF08D9EDEA8BD022E50CFFA7
:10005E0023240EF80F0808BF08047F00780EE63040
:10006E00E4F200E50CC39F5020050C741D250CF81E
:10007E00E6FDA68108E6AE0CBE070274FFCDF8E8D9
:10008E006D60E008E6C0E080F6E50CD39F4027E502
:10009E000C241EF8E6AE0CBE070274FFFD18E6CD6A
:1000AE00F8E5816D6006D0E0F61880F5E50C241DAC
:1000BE00C8F6150C80D3E50C23240EF87F04C2AFCE
:1000CE00E630E00310E20C7F0030E10730E3047FFE
:1000DE000854F4547CC6D2AF5480420722781DA631
:1000EE008174076006FF0876FFDFFB7F08E4780D5A
:0D00FE00F608F608DFFA780E763090023E24
:10010B00740193C0E0E493C0E0438901758AF075F4
:0A011B008CD8D28CD2AFD2A92207F3
:10012500EFD3940740037FFF22740E2F2FF8E620AC
:10013500E5F4C2AFE64430F6D2AFAE0CEEC39F5045
:10014500210E741D2EF8E6F908E618BE070274FFA5
:10015500FDED69600909E71919F7090980F3161614
:1001650080DAEED39F400405810581EED39F4022BE
:10017500741D2EF808E6F9EEB50C02A981180606DD
:10018500E6FDED6960091919E70909F71980F31EFC
:1001950080D9EF241DF8E604F8EF2F0490023E9372
:0901A500F608EF2F93F67F00220B
:1001AE008FF0E4FFFEE50C23240DF8C2A930F70D05
:1001BE007F08E6600B2DF660325030800730F10676
:1001CE00EDF660277E020830F010C2AFE610E7258C
:1001DE000E30E20CD2AF7F048014C2AFE610E715EA
:1001EE0054EC4EF6D2AFD2A902005B7F0808EF4462
:0F01FE0083F4C2AF56C6D2AFD2A954804FFF22AE
:00000001FF
