:03000000020203F6
:0C020300787FE4F6D8FD75813202024AD3
:0803FC00767938383F406F4F5D
:1003A10014113F065B4F666D7D077F6F777C395E69
:0603B1007971733EFF00AC
:07040400120003E4FEFF22D9
:1003B80012037FEF641060F8E4F5A074112FF8E6DB
:0403C800F58080EC50
:10000300E4F508750909F50AF50B750C03F50D758B
:100013000E02F50FF5101203CCD2AF12037F8F251A
:0800230012017612034780F37D
:1003CC00E4F5C875CB3C75CD3C75CAB075CCB0D2D4
:0403DC00ADD2CA22B2
:03002B000202FAD4
:1002FA00C0E0C0D0C2AFC2CF0510E510641470369A
:10030A00F510050FE50F640A702CF50F050EE50EC2
:10031A0064067022F50E050CE50CB40A19750C007A
:10032A00050BE50BB4060F750B000509E509B40AC0
:0D033A00057509000508D2AFD0D0D0E03223
:10034700753108E4F532E532C39531502A8532A07C
:10035700E53275F00384AFF0BF0205758040800C6D
:1003670074082532F8E62411F8E6F5807F027E004E
:070377001203E0053280CF04
:01037E00225C
:020176008F26D2
:10017800C2AFE526640C6003D2AF2278277C007DED
:10018800007B007A0079087E007F081200FE7E005E
:100198007F087D007B007A00790812014AE4F52F78
:1001A800E52FC39408505112034712037F8F26E5A9
:1001B80026641060EBE526B40A18752F0878087CC9
:1001C800007D007B007A0079277E007F081200FE00
:1001D8008008E526B40B03752F08E52F6402600537
:1001E800E52FB40502052FE52675F00A8474082565
:0A01F8002FF8A6F0052F80A8D2AF63
:0102020022D9
:10028F00EF12012402C71102D31202DF1402EB187E
:10029F0002CA2102D62202E22402EE2802CD410236
:1002AF00D94202E54402F14802D08102DC8202E821
:1002BF008402F488000002F77F07227F08227F095B
:1002CF00227F0D227F04227F05227F06227F0A22B2
:1002DF007F01227F02227F03227F0C227F00227F59
:0B02EF000E227F0F227F0B227F1022C7
:10037F0075900F8590307590F0AF90EF42306330ED
:10038F00FF7590F0120347E590B4F0F5AF3012020D
:01039F008FCE
:0103A000223A
:1003E000EF4E600DE4FD0DBDEFFCEF1F70F21E80BF
:0103F000EF1D
:0103F10022E9
:03041100000022C6
:0903F200E4FF1204110FBF04F92D
:0103FB0022DF
:06040B001203F20203F2ED
:10020F00020404E493A3F8E493A34003F68001F2FD
:10021F0008DFF48029E493A3F85407240CC8C333F0
:10022F00C4540F4420C8834004F456800146F6DFBF
:10023F00E4800B01020408102040809003A1E47EAB
:10024F00019360BCA3FF543F30E509541FFEE493B4
:10025F00A360010ECF54C025E060A840B8E493A37B
:10026F00FAE493A3F8E493A3C8C582C8CAC583CAA6
:10027F00F0A3C8C582C8CAC583CADFE9DEE780BE5E
:0103B7000045
:10002E00E709F608DFFA8046E709F208DFFA803EB4
:10003E0088828C83E709F0A3DFFA8032E309F608A1
:10004E00DFFA8078E309F208DFFA807088828C8309
:10005E00E309F0A3DFFA806489828A83E0A3F608BD
:10006E00DFFA805889828A83E0A3F208DFFA804C97
:10007E0080D280FA80C680D4806980F2803380106E
:10008E0080A680EA809A80A880DA80E280CA8033D7
:10009E0089828A83ECFAE493A3C8C582C8CCC5834F
:1000AE00CCF0A3C8C582C8CCC583CCDFE9DEE7801F
:1000BE000D89828A83E493A3F608DFF9ECFAA9F09E
:1000CE00EDFB2289828A83ECFAE0A3C8C582C8CCF4
:1000DE00C583CCF0A3C8C582C8CCC583CCDFEADE0D
:1000EE00E880DB89828A83E493A3F208DFF980CC6F
:1000FE0088F0EF60010E4E60C388F0ED2402B40468
:10010E000050B9F582EB2402B4040050AF2323450E
:06011E00822390007E73B5
:10012400D083D082F8E4937012740193700DA3A36A
:1001340093F8740193F5828883E47374029368607E
:06014400EFA3A3A380DF7E
:10014A00EF4E6012EF60010EEDBB010B89828A83CC
:10015A00F0A3DFFCDEFA2289F05007F709DFFCA9D9
:0C016A00F022BBFEFCF309DFFCA9F02230
:00000001FF
