:030000000200C03B
:0C00C000787FE4F6D8FD7581070200B0DF
:1000B000120094EF641060F8EFC454F0F5A080F0E3
:10000300EF12006E003B11004712005314005F18FB
:10001300003E21004A22005624006228004141008C
:100023004D42005944006548004481005082005C01
:10003300840068880000006B7F07227F08227F0905
:10004300227F0D227F04227F05227F06227F0A2240
:100053007F01227F02227F03227F0C227F00227FE7
:0B0063000E227F0F227F0B227F102255
:1000940075900FAF907590F0AE90EE42076307FF36
:0B00A4007590F0E590B4F0F812000336
:0100AF00222E
:10006E00D083D082F8E4937012740193700DA3A321
:10007E0093F8740193F5828883E473740293686035
:06008E00EFA3A3A380DF35
:00000001FF
