:030000000200FFFC
:0C00FF00787FE4F6D8FD75810B02000349
:100003001200C57F647E001200DCE4F50BF50AF5EF
:1000130009F508E47FFFFEFDFCAB0BAA0AA909A8BA
:1000230008D31200EE5023AF0B74002FF582E43493
:1000330030F583EFF02401F50BE4350AF50AE435D6
:1000430009F509E43508F50880C9E4F50BF50AF567
:1000530009F508E47FFFFEFDFCAB0BAA0AA909A87A
:1000630008D31200EE502E7400250BF582E43430D1
:10007300F583E0FF12009A7F647E001200DCE50B3B
:100083002401F50BE4350AF50AE43509F509E435ED
:0700930008F50880BE80FEA5
:1000C500758920758780758BFD758DFDD29FD29EB4
:0700D500C29DD29CD28E22D5
:10009A00C299E4FEAD07FCEDA804088002C313D898
:1000AA00FC54012EFE0CBC08EEEE20E004C29B803C
:0A00BA0002D29B8F993099FDC29984
:0100C4002219
:1000DC00EF4E600DE4FD0DBDEFFCEF1F70F21E80C6
:0100EC00EF24
:0100ED0022F0
:1000EE00EB9FF5F0EA9E42F0E99D42F0E89C45F068
:0100FE0022DF
:00000001FF
