:03000000020129D1
:0C012900787FE4F6D8FD75810B0200A37E
:1000A3001200037F647E00120106E4F50BF50AF5E6
:1000B30009F508E47FFFFEFDFCAB0BAA0AA909A81A
:1000C30008D3120118502BAF0BAE0B74002EF58220
:1000D300E43430F583EFF0AF0BAE0AAD09AC08EFB3
:1000E3002401F50BE43EF50AE43DF509E43CF5088B
:1000F30080C1E4F50BF50AF509F508D2ACD2AFD20D
:030103009980FEE2
:10000300758920758780758BFD758DFDC29FD29E86
:07001300C29DD29CD28E2297
:03002300020026B2
:10002600C0E0C0F0C083C082C0D075D000C000C0A0
:1000360001C002C003C004C005C006C00730994015
:10004600C299E47FFFFEFDFCAB0BAA0AA909A8082A
:10005600D3120118502CAF0B74002FF582E4343004
:10006600F583E0F599AF0BAE0AAD09AC08EF2401B4
:10007600F50BE43EF50AE43DF509E43CF50880029B
:10008600C298D007D006D005D004D003D002D00144
:0D009600D000D0D0D082D083D0F0D0E032A6
:10010600EF4E600DE4FD0DBDEFFCEF1F70F21E809B
:01011600EFF9
:0101170022C5
:10011800EB9FF5F0EA9E42F0E99D42F0E89C45F03D
:0101280022B4
:00000001FF
