:03000000020003F8
:0C000300787FE4F6D8FD75812002004AE9
:10008F00EF4E600DE4FD0DBDEFFCEF1F70F21E8013
:01009F00EF71
:0100A000223D
:10000F00020000E493A3F8E493A34003F68001F207
:10001F0008DFF48029E493A3F85407240CC8C333F2
:10002F00C4540F4420C8834004F456800146F6DFC1
:10003F00E4800B01020408102040809000A1E47EB0
:10004F00019360BCA3FF543F30E509541FFEE493B6
:10005F00A360010ECF54C025E060A840B8E493A37D
:10006F00FAE493A3F8E493A3C8C582C8CAC583CAA8
:10007F00F0A3C8C582C8CAC583CADFE9DEE780BE60
:0100A100005E
:00000001FF
