:0300000002018A70
:0C018A00787FE4F6D8FD75812002002E7D
:10002E00C200C20120010B750A63750809750963C8
:10003E008007E4F50AF508F50912014A120003D209
:10004E00AF20800EE4FFFE1200172080053080FDE9
:10005E00D20020810EE4FFFE1200172081053081B0
:10006E00FDB200208228E4FFFE12001720821FC27C
:10007E00AF3082FD20010B750A637508097509639F
:10008E008007E4F50AF508F50912014AD2AF20837C
:10009E00B0E4FFFE1200172083A7C2AF3083FD200D
:1000AE00010BD201E4F50AF508F509800BC20175C2
:0F00BE000A6375080975096312014AD2AF80827F
:03002B000200CD03
:1000CD00C0E0C0F0C083C082C0D075D000C000C0F9
:1000DD0001C002C003C004C005C006C007C2AFC244
:1000ED00CF30003A30011C0509E509C39464400581
:1000FD007509000508E508C3940A401F7508000539
:10010D000A8018E5097012750963E508700775080E
:10011D0009150A800615088002150912014AB287D1
:10012D00D2AFD007D006D005D004D003D002D00175
:0D013D00D000D0D0D082D083D0F0D0E032FE
:10000300E4F5C875CBFC75CDFC75CA1875CC18D250
:04001300ADD2CA227E
:10014A00E50A75F00A84C454F0FFE50A75F00A84DA
:10015A00EF25F0F5B0E50875F00A84C454F0FFE520
:10016A000875F00A84EF25F0F5A0E50975F00A8410
:10017A00C454F0FFE50975F00A84EF25F0F59022E2
:10001700EF4E600DE4FD0DBDEFFCEF1F70F21E808B
:01002700EFE9
:0100280022B5
:00000001FF
