:030000000200F803
:0C00F800787FE4F6D8FD75810B02000350
:100003001200BE7F647E001200D5E4F50BF50AF5FD
:1000130009F508E47FFFFEFDFCAB0BAA0AA909A8BA
:1000230008D31200E75023AF0B74002FF582E4349A
:1000330030F583EFF02401F50BE4350AF50AE435D6
:1000430009F509E43508F50880C9E4F50BF50AF567
:1000530009F508E47FFFFEFDFCAB0BAA0AA909A87A
:1000630008D31200E750277400250BF582E43430DF
:10007300F583E0FF120093E50B2401F50BE4350A49
:10008300F50AE43509F509E43508F50880C580FE6D
:1000BE00758920758780758BFD758DFDD29FD29EBB
:0700CE00C29DD29CD28E22DC
:10009300C299E4FEAD07FCEDA804088002C313D89F
:1000A300FC54012EFE0CBC08EEEE20E004C29B8043
:0A00B30002D29B8F993099FDC2998B
:0100BD002220
:1000D500EF4E600DE4FD0DBDEFFCEF1F70F21E80CD
:0100E500EF2B
:0100E60022F7
:1000E700EB9FF5F0EA9E42F0E99D42F0E89C45F06F
:0100F70022E6
:00000001FF
