:030000000200A358
:0C00A300787FE4F6D8FD75810C020003A4
:10007900767938383F404040777C395E79717371C1
:08008900760638383F065B4F94
:10000300750803C296E4F50AE50AC3950850F6E4B9
:10001300F50BC37407950BFFE49400FEE50A75F036
:1000230008A42479F582E43400F583E5822FF58270
:10003300E5833EF583E493F509E4F50CAF0CE5099C
:10004300A807088002C313D8FC1392971200AFD2FB
:10005300961200B9C2961200AF050CE50CC39408C2
:1000630040DA050BE50BC3940840A77F887E131283
:060073000091050A8092D5
:10009100EF4E600DE4FD0DBDEFFCEF1F70F21E8011
:0100A100EF6F
:0100A200223B
:0300BF000000221C
:0900AF00E4FF1200BF0FBF04F9C9
:0100B8002225
:0600B9001200AF0200AFCF
:00000001FF
