:0300000002019169
:0C019100787FE4F6D8FD758110020003B1
:100003007590FF7580FF75B0FF75A0FF12017BE44B
:10001300750B011200D112017B750C01AF0BAE0AF7
:10002300AD09AC0878011201538F0B8E0A8D098C30
:10003300081200DF12017B050CE50CC3942040DCA1
:10004300E4F50B1200D112017B750C01AF0BAE0A64
:10005300AD09AC0878011201678F0B8E0A8D098CEC
:1000630008E50BF50BE50AF50AE509F509E508448A
:1000730080F508AF0BAE0AAD09FC1200DF12017B5D
:10008300050CE50CD3942040C3750C01E50CD39407
:1000930020400302000FAF0BAE0AAD09AC08780194
:1000A3001201538F0B8E0A8D098C08E50B54FEF554
:1000B3000BE50AF50AE509F509E508F508AF0BAE06
:0E00C3000AAD09FC1200DF12017B050C80BEA5
:04017B007FC87E00BB
:10017F00EF4E600DE4FD0DBDEFFCEF1F70F21E8022
:01018F00EF80
:01019000224C
:0E00D100F50AF509F508AF0BAE0AAD09AC084B
:1000DF008F108E0F8D0E8C0DE4FEFDFC1201338FF1
:1000EF0090AF10AE0FAD0EAC0D7808120140E4FECC
:1000FF00FDFC1201338F80AF10AE0FAD0EAC0D783B
:10010F0010120140E4FEFDFC1201338FB0AF10AEB0
:10011F000FAD0EAC0D7818120140E4FEFDFC12017C
:04012F00338FA02248
:0D013300CFF4CFCEF4CECDF4CDCCF4CC2261
:10014000E8600FECC313FCED13FDEE13FEEF13FF9D
:03015000D8F122C1
:10015300EF08800C33CE33CECD33CDCC33CC92E00D
:04016300D8F2FF22AD
:10016700EF08800CA2E0CC13CCCD13CDCE13CE1369
:04017700D8F2FF2299
:00000001FF
