:03000000020017E4
:0C001700787FE4F6D8FD75810B0200E351
:1000E300120003C2AFC2ACD2ACC299C298D2AF80E5
:0100F300FE0E
:03002300020026B2
:10002600C0E0C0F0C083C082C0D075D000C000C0A0
:0D00360001C002C003C004C005C006C00721
:10004300C2AF859908C298C2993098FD859909C2B3
:1000530098C299E4FFEFC3950950103098FD740AD4
:100063002FF8A699C298C2990F80EAE508B40A1836
:10007300E50A65907037FF1200F47F021200F4AFB7
:10008300801200F4AFA08022E508B40611E50AB59A
:10009300901B850BA0E4FF1200F4E4FF800CE50A3B
:1000A300B5900A7F011200F4E4FF1200F4C298C273
:0300B30099D2AF30
:1000B600D007D006D005D004D003D002D001D0009E
:0B00C600D0D0D082D083D0F0D0E03248
:0A00F400C2998F993099FDC299223C
:10000300758920758780758BFD758DFDD28E7598EA
:0400130050D299220C
:1000D100EF4E600DE4FD0DBDEFFCEF1F70F21E80D1
:0100E100EF2F
:0100E20022FB
:00000001FF
